{
  "contractName": "Review",
  "abi": [
    {
      "constant": true,
      "inputs": [
        {
          "internalType": "string",
          "name": "",
          "type": "string"
        }
      ],
      "name": "detailsMap",
      "outputs": [
        {
          "internalType": "string",
          "name": "privateKey",
          "type": "string"
        },
        {
          "internalType": "string",
          "name": "password",
          "type": "string"
        },
        {
          "internalType": "string",
          "name": "phoneNumber",
          "type": "string"
        },
        {
          "internalType": "string",
          "name": "vehicle",
          "type": "string"
        },
        {
          "internalType": "string",
          "name": "vehicleNo",
          "type": "string"
        },
        {
          "internalType": "string",
          "name": "name",
          "type": "string"
        },
        {
          "internalType": "string",
          "name": "category",
          "type": "string"
        },
        {
          "internalType": "uint256",
          "name": "numberOfRides",
          "type": "uint256"
        },
        {
          "internalType": "uint256",
          "name": "reviewScore",
          "type": "uint256"
        }
      ],
      "payable": false,
      "stateMutability": "view",
      "type": "function"
    },
    {
      "constant": true,
      "inputs": [],
      "name": "review",
      "outputs": [
        {
          "internalType": "uint256",
          "name": "reviewScore",
          "type": "uint256"
        },
        {
          "internalType": "string",
          "name": "reviewDescription",
          "type": "string"
        },
        {
          "internalType": "bool",
          "name": "disputed",
          "type": "bool"
        },
        {
          "internalType": "bool",
          "name": "reviewConfirmed",
          "type": "bool"
        },
        {
          "internalType": "bool",
          "name": "discarded",
          "type": "bool"
        }
      ],
      "payable": false,
      "stateMutability": "view",
      "type": "function"
    },
    {
      "constant": true,
      "inputs": [
        {
          "internalType": "string",
          "name": "username",
          "type": "string"
        }
      ],
      "name": "get",
      "outputs": [
        {
          "internalType": "string",
          "name": "",
          "type": "string"
        },
        {
          "internalType": "string",
          "name": "",
          "type": "string"
        },
        {
          "internalType": "string",
          "name": "",
          "type": "string"
        },
        {
          "internalType": "string",
          "name": "",
          "type": "string"
        },
        {
          "internalType": "string",
          "name": "",
          "type": "string"
        },
        {
          "internalType": "string",
          "name": "",
          "type": "string"
        },
        {
          "internalType": "string",
          "name": "",
          "type": "string"
        },
        {
          "internalType": "uint256",
          "name": "",
          "type": "uint256"
        },
        {
          "internalType": "uint256",
          "name": "",
          "type": "uint256"
        },
        {
          "internalType": "string[]",
          "name": "",
          "type": "string[]"
        }
      ],
      "payable": false,
      "stateMutability": "view",
      "type": "function"
    },
    {
      "constant": false,
      "inputs": [
        {
          "internalType": "string",
          "name": "name",
          "type": "string"
        },
        {
          "internalType": "string",
          "name": "username",
          "type": "string"
        },
        {
          "internalType": "string",
          "name": "phoneNumber",
          "type": "string"
        },
        {
          "internalType": "string",
          "name": "vehicle",
          "type": "string"
        },
        {
          "internalType": "string",
          "name": "vehicleNo",
          "type": "string"
        },
        {
          "internalType": "string",
          "name": "category",
          "type": "string"
        },
        {
          "internalType": "string",
          "name": "password",
          "type": "string"
        },
        {
          "internalType": "string",
          "name": "key",
          "type": "string"
        },
        {
          "internalType": "uint256",
          "name": "numberOfRides",
          "type": "uint256"
        },
        {
          "internalType": "uint256",
          "name": "reviewScore",
          "type": "uint256"
        }
      ],
      "name": "set",
      "outputs": [],
      "payable": true,
      "stateMutability": "payable",
      "type": "function"
    },
    {
      "constant": false,
      "inputs": [
        {
          "internalType": "string",
          "name": "driver",
          "type": "string"
        },
        {
          "internalType": "string",
          "name": "rider",
          "type": "string"
        }
      ],
      "name": "setFinalBid",
      "outputs": [],
      "payable": false,
      "stateMutability": "nonpayable",
      "type": "function"
    },
    {
      "constant": true,
      "inputs": [
        {
          "internalType": "string",
          "name": "rider",
          "type": "string"
        }
      ],
      "name": "getFinalBid",
      "outputs": [
        {
          "internalType": "uint256",
          "name": "",
          "type": "uint256"
        }
      ],
      "payable": false,
      "stateMutability": "view",
      "type": "function"
    },
    {
      "constant": false,
      "inputs": [
        {
          "internalType": "uint256",
          "name": "score",
          "type": "uint256"
        }
      ],
      "name": "writeReviewScore",
      "outputs": [],
      "payable": true,
      "stateMutability": "payable",
      "type": "function"
    },
    {
      "constant": true,
      "inputs": [],
      "name": "getScore",
      "outputs": [
        {
          "internalType": "uint256",
          "name": "",
          "type": "uint256"
        }
      ],
      "payable": false,
      "stateMutability": "view",
      "type": "function"
    },
    {
      "constant": false,
      "inputs": [
        {
          "internalType": "string",
          "name": "description",
          "type": "string"
        }
      ],
      "name": "writeReviewDescription",
      "outputs": [],
      "payable": true,
      "stateMutability": "payable",
      "type": "function"
    },
    {
      "constant": true,
      "inputs": [],
      "name": "getDescription",
      "outputs": [
        {
          "internalType": "string",
          "name": "",
          "type": "string"
        }
      ],
      "payable": false,
      "stateMutability": "view",
      "type": "function"
    },
    {
      "constant": false,
      "inputs": [],
      "name": "disputeReview",
      "outputs": [],
      "payable": true,
      "stateMutability": "payable",
      "type": "function"
    },
    {
      "constant": false,
      "inputs": [],
      "name": "discardReview",
      "outputs": [],
      "payable": true,
      "stateMutability": "payable",
      "type": "function"
    },
    {
      "constant": false,
      "inputs": [],
      "name": "confirmedReview",
      "outputs": [],
      "payable": true,
      "stateMutability": "payable",
      "type": "function"
    },
    {
      "constant": false,
      "inputs": [
        {
          "internalType": "string",
          "name": "username",
          "type": "string"
        }
      ],
      "name": "updateReview",
      "outputs": [],
      "payable": true,
      "stateMutability": "payable",
      "type": "function"
    },
    {
      "constant": true,
      "inputs": [
        {
          "internalType": "string",
          "name": "username",
          "type": "string"
        }
      ],
      "name": "showReviewScore",
      "outputs": [
        {
          "internalType": "uint256",
          "name": "",
          "type": "uint256"
        }
      ],
      "payable": false,
      "stateMutability": "view",
      "type": "function"
    },
    {
      "constant": true,
      "inputs": [
        {
          "internalType": "string",
          "name": "username",
          "type": "string"
        }
      ],
      "name": "showReviewDescriptions",
      "outputs": [
        {
          "internalType": "string[]",
          "name": "",
          "type": "string[]"
        }
      ],
      "payable": false,
      "stateMutability": "view",
      "type": "function"
    },
    {
      "constant": true,
      "inputs": [
        {
          "internalType": "string",
          "name": "username",
          "type": "string"
        }
      ],
      "name": "getNumberOfRides",
      "outputs": [
        {
          "internalType": "uint256",
          "name": "",
          "type": "uint256"
        }
      ],
      "payable": false,
      "stateMutability": "view",
      "type": "function"
    },
    {
      "constant": true,
      "inputs": [
        {
          "internalType": "string",
          "name": "a",
          "type": "string"
        },
        {
          "internalType": "string",
          "name": "b",
          "type": "string"
        }
      ],
      "name": "compareStrings",
      "outputs": [
        {
          "internalType": "bool",
          "name": "",
          "type": "bool"
        }
      ],
      "payable": false,
      "stateMutability": "pure",
      "type": "function"
    },
    {
      "constant": true,
      "inputs": [
        {
          "internalType": "string[]",
          "name": "_a",
          "type": "string[]"
        },
        {
          "internalType": "string[]",
          "name": "_b",
          "type": "string[]"
        }
      ],
      "name": "compareListStrings",
      "outputs": [
        {
          "internalType": "bool",
          "name": "",
          "type": "bool"
        }
      ],
      "payable": false,
      "stateMutability": "pure",
      "type": "function"
    }
  ],
  "bytecode": "0x608060405234801561001057600080fd5b506124b2806100206000396000f3fe6080604052600436106101145760003560e01c806383e2c6ae116100a0578063b47f8ec611610064578063b47f8ec6146103b8578063bed34bba146103d4578063c82dec5514610411578063cdbec31c1461043a578063e1d6bfa21461044457610114565b806383e2c6ae146102c85780639d3f08f7146102e4578063ad4d8aec14610313578063ae8ac48f14610350578063afd820671461038d57610114565b8063549a5fac116100e7578063549a5fac1461020357806358bb55141461021f578063693ec85e14610229578063697337ed1461026f578063813a1bf11461028b57610114565b8063016669aa146101195780631a0925411461015e5780631bbe595a14610189578063284c197f146101c6575b600080fd5b34801561012557600080fd5b50610140600480360361013b9190810190611c14565b61044e565b60405161015599989796959493929190612193565b60405180910390f35b34801561016a57600080fd5b506101736108da565b604051610180919061209d565b60405180910390f35b34801561019557600080fd5b506101b060048036036101ab9190810190611c55565b61097f565b6040516101bd9190612251565b60405180910390f35b3480156101d257600080fd5b506101ed60048036036101e89190810190611ba8565b6109af565b6040516101fa9190612082565b60405180910390f35b61021d60048036036102189190810190611c55565b610a2c565b005b610227610b7d565b005b34801561023557600080fd5b50610250600480360361024b9190810190611c55565b610b9d565b6040516102669a999897969594939291906120bf565b60405180910390f35b61028960048036036102849190810190611d02565b6111ba565b005b34801561029757600080fd5b506102b260048036036102ad9190810190611c55565b61132e565b6040516102bf9190612060565b60405180910390f35b6102e260048036036102dd9190810190611c55565b61143e565b005b3480156102f057600080fd5b506102f961145b565b60405161030a95949392919061226c565b60405180910390f35b34801561031f57600080fd5b5061033a60048036036103359190810190611c55565b61153e565b6040516103479190612251565b60405180910390f35b34801561035c57600080fd5b5061037760048036036103729190810190611c55565b61156e565b6040516103849190612251565b60405180910390f35b34801561039957600080fd5b506103a2611599565b6040516103af9190612251565b60405180910390f35b6103d260048036036103cd9190810190611e9d565b6115a5565b005b3480156103e057600080fd5b506103fb60048036036103f69190810190611c96565b611608565b6040516104089190612082565b60405180910390f35b34801561041d57600080fd5b5061043860048036036104339190810190611c96565b611661565b005b6104426116d9565b005b61044c6116f9565b005b600381805160208101820180518482526020830160208501208183528095505050505050600091509050806000018054600181600116156101000203166002900480601f0160208091040260200160405190810160405280929190818152602001828054600181600116156101000203166002900480156105105780601f106104e557610100808354040283529160200191610510565b820191906000526020600020905b8154815290600101906020018083116104f357829003601f168201915b505050505090806001018054600181600116156101000203166002900480601f0160208091040260200160405190810160405280929190818152602001828054600181600116156101000203166002900480156105ae5780601f10610583576101008083540402835291602001916105ae565b820191906000526020600020905b81548152906001019060200180831161059157829003601f168201915b505050505090806002018054600181600116156101000203166002900480601f01602080910402602001604051908101604052809291908181526020018280546001816001161561010002031660029004801561064c5780601f106106215761010080835404028352916020019161064c565b820191906000526020600020905b81548152906001019060200180831161062f57829003601f168201915b505050505090806003018054600181600116156101000203166002900480601f0160208091040260200160405190810160405280929190818152602001828054600181600116156101000203166002900480156106ea5780601f106106bf576101008083540402835291602001916106ea565b820191906000526020600020905b8154815290600101906020018083116106cd57829003601f168201915b505050505090806004018054600181600116156101000203166002900480601f0160208091040260200160405190810160405280929190818152602001828054600181600116156101000203166002900480156107885780601f1061075d57610100808354040283529160200191610788565b820191906000526020600020905b81548152906001019060200180831161076b57829003601f168201915b505050505090806005018054600181600116156101000203166002900480601f0160208091040260200160405190810160405280929190818152602001828054600181600116156101000203166002900480156108265780601f106107fb57610100808354040283529160200191610826565b820191906000526020600020905b81548152906001019060200180831161080957829003601f168201915b505050505090806006018054600181600116156101000203166002900480601f0160208091040260200160405190810160405280929190818152602001828054600181600116156101000203166002900480156108c45780601f10610899576101008083540402835291602001916108c4565b820191906000526020600020905b8154815290600101906020018083116108a757829003601f168201915b5050505050908060070154908060080154905089565b606060006001018054600181600116156101000203166002900480601f0160208091040260200160405190810160405280929190818152602001828054600181600116156101000203166002900480156109755780601f1061094a57610100808354040283529160200191610975565b820191906000526020600020905b81548152906001019060200180831161095857829003601f168201915b5050505050905090565b6000806003836040516109929190612049565b908152602001604051809103902090508060070154915050919050565b6000806001905082518451146109c457600090505b60008090505b8451811015610a215760001515610a078683815181106109e657fe5b60200260200101518684815181106109fa57fe5b6020026020010151611608565b15151415610a1457600091505b80806001019150506109ca565b508091505092915050565b6000600382604051610a3e9190612049565b9081526020016040518091039020905060011515600060020160019054906101000a900460ff16151514610a7157600080fd5b60001515600060020160029054906101000a900460ff1615151415610b79576000600182600701540190506000816000800154601402846008015460018503020181610ab957fe5b04905081600385604051610acd9190612049565b90815260200160405180910390206007018190555080600385604051610af39190612049565b908152602001604051809103902060080181905550600384604051610b189190612049565b908152602001604051809103902060090160006001019080600181540180825580915050906001820390600052602060002001600090919290919091509080546001816001161561010002031660029004610b749291906117a4565b505050505b5050565b6001600060020160006101000a81548160ff021916908315150217905550565b60608060608060608060606000806060610bb561182b565b60038c604051610bc59190612049565b908152602001604051809103902060405180610140016040529081600082018054600181600116156101000203166002900480601f016020809104026020016040519081016040528092919081815260200182805460018160011615610100020316600290048015610c785780601f10610c4d57610100808354040283529160200191610c78565b820191906000526020600020905b815481529060010190602001808311610c5b57829003601f168201915b50505050508152602001600182018054600181600116156101000203166002900480601f016020809104026020016040519081016040528092919081815260200182805460018160011615610100020316600290048015610d1a5780601f10610cef57610100808354040283529160200191610d1a565b820191906000526020600020905b815481529060010190602001808311610cfd57829003601f168201915b50505050508152602001600282018054600181600116156101000203166002900480601f016020809104026020016040519081016040528092919081815260200182805460018160011615610100020316600290048015610dbc5780601f10610d9157610100808354040283529160200191610dbc565b820191906000526020600020905b815481529060010190602001808311610d9f57829003601f168201915b50505050508152602001600382018054600181600116156101000203166002900480601f016020809104026020016040519081016040528092919081815260200182805460018160011615610100020316600290048015610e5e5780601f10610e3357610100808354040283529160200191610e5e565b820191906000526020600020905b815481529060010190602001808311610e4157829003601f168201915b50505050508152602001600482018054600181600116156101000203166002900480601f016020809104026020016040519081016040528092919081815260200182805460018160011615610100020316600290048015610f005780601f10610ed557610100808354040283529160200191610f00565b820191906000526020600020905b815481529060010190602001808311610ee357829003601f168201915b50505050508152602001600582018054600181600116156101000203166002900480601f016020809104026020016040519081016040528092919081815260200182805460018160011615610100020316600290048015610fa25780601f10610f7757610100808354040283529160200191610fa2565b820191906000526020600020905b815481529060010190602001808311610f8557829003601f168201915b50505050508152602001600682018054600181600116156101000203166002900480601f0160208091040260200160405190810160405280929190818152602001828054600181600116156101000203166002900480156110445780601f1061101957610100808354040283529160200191611044565b820191906000526020600020905b81548152906001019060200180831161102757829003601f168201915b50505050508152602001600782015481526020016008820154815260200160098201805480602002602001604051908101604052809291908181526020016000905b82821015611142578382906000526020600020018054600181600116156101000203166002900480601f01602080910402602001604051908101604052809291908181526020018280546001816001161561010002031660029004801561112e5780601f106111035761010080835404028352916020019161112e565b820191906000526020600020905b81548152906001019060200180831161111157829003601f168201915b505050505081526020019060010190611086565b5050505081525050905080600001518160400151826060015183608001518460c001518560a0015186602001518760e001518861010001518961012001518999508898508797508696508595508494508393508090509a509a509a509a509a509a509a509a509a509a50509193959799509193959799565b60606040518061014001604052808581526020018681526020018a81526020018981526020018881526020018c81526020018781526020018481526020018381526020018281525060038b6040516112129190612049565b9081526020016040518091039020600082015181600001908051906020019061123c92919061187e565b50602082015181600101908051906020019061125992919061187e565b50604082015181600201908051906020019061127692919061187e565b50606082015181600301908051906020019061129392919061187e565b5060808201518160040190805190602001906112b092919061187e565b5060a08201518160050190805190602001906112cd92919061187e565b5060c08201518160060190805190602001906112ea92919061187e565b5060e08201518160070155610100820151816008015561012082015181600901908051906020019061131d9291906118fe565b509050505050505050505050505050565b606060006003836040516113429190612049565b9081526020016040518091039020905080600901805480602002602001604051908101604052809291908181526020016000905b82821015611432578382906000526020600020018054600181600116156101000203166002900480601f01602080910402602001604051908101604052809291908181526020018280546001816001161561010002031660029004801561141e5780601f106113f35761010080835404028352916020019161141e565b820191906000526020600020905b81548152906001019060200180831161140157829003601f168201915b505050505081526020019060010190611376565b50505050915050919050565b806000600101908051906020019061145792919061195e565b5050565b6000806000015490806001018054600181600116156101000203166002900480601f0160208091040260200160405190810160405280929190818152602001828054600181600116156101000203166002900480156114fb5780601f106114d0576101008083540402835291602001916114fb565b820191906000526020600020905b8154815290600101906020018083116114de57829003601f168201915b5050505050908060020160009054906101000a900460ff16908060020160019054906101000a900460ff16908060020160029054906101000a900460ff16905085565b6000806003836040516115519190612049565b908152602001604051809103902090508060080154915050919050565b60006004826040516115809190612049565b9081526020016040518091039020805490509050919050565b60008060000154905090565b80600080018190555060008060020160006101000a81548160ff02191690831515021790555060008060020160016101000a81548160ff02191690831515021790555060008060020160026101000a81548160ff02191690831515021790555050565b60008160405160200161161b9190612049565b60405160208183030381529060405280519060200120836040516020016116429190612049565b6040516020818303038152906040528051906020012014905092915050565b6004816040516116719190612049565b908152602001604051809103902060405180602001604052808481525090806001815401808255809150509060018203906000526020600020016000909192909190915060008201518160000190805190602001906116d192919061187e565b505050505050565b6001600060020160026101000a81548160ff021916908315150217905550565b60011515600060020160009054906101000a900460ff16151514156117665760011515600060020160029054906101000a900460ff16151514156117615760006060816000800181905550806000600101908051906020019061175d92919061195e565b5050505b611784565b60008060020160026101000a81548160ff0219169083151502179055505b6001600060020160016101000a81548160ff021916908315150217905550565b828054600181600116156101000203166002900490600052602060002090601f016020900481019282601f106117dd578054855561181a565b8280016001018555821561181a57600052602060002091601f016020900482015b828111156118195782548255916001019190600101906117fe565b5b50905061182791906119de565b5090565b604051806101400160405280606081526020016060815260200160608152602001606081526020016060815260200160608152602001606081526020016000815260200160008152602001606081525090565b828054600181600116156101000203166002900490600052602060002090601f016020900481019282601f106118bf57805160ff19168380011785556118ed565b828001600101855582156118ed579182015b828111156118ec5782518255916020019190600101906118d1565b5b5090506118fa91906119de565b5090565b82805482825590600052602060002090810192821561194d579160200282015b8281111561194c57825182908051906020019061193c92919061187e565b509160200191906001019061191e565b5b50905061195a9190611a03565b5090565b828054600181600116156101000203166002900490600052602060002090601f016020900481019282601f1061199f57805160ff19168380011785556119cd565b828001600101855582156119cd579182015b828111156119cc5782518255916020019190600101906119b1565b5b5090506119da91906119de565b5090565b611a0091905b808211156119fc5760008160009055506001016119e4565b5090565b90565b611a2c91905b80821115611a285760008181611a1f9190611a2f565b50600101611a09565b5090565b90565b50805460018160011615610100020316600290046000825580601f10611a555750611a74565b601f016020900490600052602060002090810190611a7391906119de565b5b50565b600082601f830112611a8857600080fd5b8135611a9b611a96826122f3565b6122c6565b9150818183526020840193506020810190508360005b83811015611ae15781358601611ac78882611aeb565b845260208401935060208301925050600181019050611ab1565b5050505092915050565b600082601f830112611afc57600080fd5b8135611b0f611b0a8261231b565b6122c6565b91508082526020830160208301858383011115611b2b57600080fd5b611b36838284612405565b50505092915050565b600082601f830112611b5057600080fd5b8135611b63611b5e82612347565b6122c6565b91508082526020830160208301858383011115611b7f57600080fd5b611b8a838284612405565b50505092915050565b600081359050611ba281612458565b92915050565b60008060408385031215611bbb57600080fd5b600083013567ffffffffffffffff811115611bd557600080fd5b611be185828601611a77565b925050602083013567ffffffffffffffff811115611bfe57600080fd5b611c0a85828601611a77565b9150509250929050565b600060208284031215611c2657600080fd5b600082013567ffffffffffffffff811115611c4057600080fd5b611c4c84828501611aeb565b91505092915050565b600060208284031215611c6757600080fd5b600082013567ffffffffffffffff811115611c8157600080fd5b611c8d84828501611b3f565b91505092915050565b60008060408385031215611ca957600080fd5b600083013567ffffffffffffffff811115611cc357600080fd5b611ccf85828601611b3f565b925050602083013567ffffffffffffffff811115611cec57600080fd5b611cf885828601611b3f565b9150509250929050565b6000806000806000806000806000806101408b8d031215611d2257600080fd5b60008b013567ffffffffffffffff811115611d3c57600080fd5b611d488d828e01611b3f565b9a505060208b013567ffffffffffffffff811115611d6557600080fd5b611d718d828e01611b3f565b99505060408b013567ffffffffffffffff811115611d8e57600080fd5b611d9a8d828e01611b3f565b98505060608b013567ffffffffffffffff811115611db757600080fd5b611dc38d828e01611b3f565b97505060808b013567ffffffffffffffff811115611de057600080fd5b611dec8d828e01611b3f565b96505060a08b013567ffffffffffffffff811115611e0957600080fd5b611e158d828e01611b3f565b95505060c08b013567ffffffffffffffff811115611e3257600080fd5b611e3e8d828e01611b3f565b94505060e08b013567ffffffffffffffff811115611e5b57600080fd5b611e678d828e01611b3f565b935050610100611e798d828e01611b93565b925050610120611e8b8d828e01611b93565b9150509295989b9194979a5092959850565b600060208284031215611eaf57600080fd5b6000611ebd84828501611b93565b91505092915050565b6000611ed28383611fc8565b905092915050565b6000611ee582612383565b611eef81856123b1565b935083602082028501611f0185612373565b8060005b85811015611f3d5784840389528151611f1e8582611ec6565b9450611f29836123a4565b925060208a01995050600181019050611f05565b50829750879550505050505092915050565b611f58816123ef565b82525050565b6000611f6982612399565b611f7381856123d3565b9350611f83818560208601612414565b611f8c81612447565b840191505092915050565b6000611fa282612399565b611fac81856123e4565b9350611fbc818560208601612414565b80840191505092915050565b6000611fd38261238e565b611fdd81856123c2565b9350611fed818560208601612414565b611ff681612447565b840191505092915050565b600061200c8261238e565b61201681856123d3565b9350612026818560208601612414565b61202f81612447565b840191505092915050565b612043816123fb565b82525050565b60006120558284611f97565b915081905092915050565b6000602082019050818103600083015261207a8184611eda565b905092915050565b60006020820190506120976000830184611f4f565b92915050565b600060208201905081810360008301526120b78184611f5e565b905092915050565b60006101408201905081810360008301526120da818d611f5e565b905081810360208301526120ee818c611f5e565b90508181036040830152612102818b611f5e565b90508181036060830152612116818a611f5e565b9050818103608083015261212a8189611f5e565b905081810360a083015261213e8188611f5e565b905081810360c08301526121528187611f5e565b905061216160e083018661203a565b61216f61010083018561203a565b8181036101208301526121828184611eda565b90509b9a5050505050505050505050565b60006101208201905081810360008301526121ae818c612001565b905081810360208301526121c2818b612001565b905081810360408301526121d6818a612001565b905081810360608301526121ea8189612001565b905081810360808301526121fe8188612001565b905081810360a08301526122128187612001565b905081810360c08301526122268186612001565b905061223560e083018561203a565b61224361010083018461203a565b9a9950505050505050505050565b6000602082019050612266600083018461203a565b92915050565b600060a082019050612281600083018861203a565b81810360208301526122938187612001565b90506122a26040830186611f4f565b6122af6060830185611f4f565b6122bc6080830184611f4f565b9695505050505050565b6000604051905081810181811067ffffffffffffffff821117156122e957600080fd5b8060405250919050565b600067ffffffffffffffff82111561230a57600080fd5b602082029050602081019050919050565b600067ffffffffffffffff82111561233257600080fd5b601f19601f8301169050602081019050919050565b600067ffffffffffffffff82111561235e57600080fd5b601f19601f8301169050602081019050919050565b6000819050602082019050919050565b600081519050919050565b600081519050919050565b600081519050919050565b6000602082019050919050565b600082825260208201905092915050565b600082825260208201905092915050565b600082825260208201905092915050565b600081905092915050565b60008115159050919050565b6000819050919050565b82818337600083830152505050565b60005b83811015612432578082015181840152602081019050612417565b83811115612441576000848401525b50505050565b6000601f19601f8301169050919050565b612461816123fb565b811461246c57600080fd5b5056fea365627a7a72315820832f8235deecc6b7d8ed6c21bbfaf52abeafbc3169dcf4de3d2eef2c9e2f1f1b6c6578706572696d656e74616cf564736f6c63430005100040",
  "source": "// SPDX-License-Identifier: GPL-3.0\n\npragma experimental ABIEncoderV2;\npragma solidity >=0.4.22 <0.8.0;\n\n/** \n * @title Review\n * @dev Implements ride share process and review system\n */\n \n\ncontract Review {\n    struct RideReview {\n        uint reviewScore;\n        string reviewDescription;\n        bool disputed;\n        bool reviewConfirmed;\n        bool discarded;\n  }\n    \n    /**\n     * Reference: RideX User Contract \n     * https://github.com/priyamshah112/RideX/blob/master/Contract/User.sol\n     */\n    struct Details{ // Details about the driver\n        string privateKey;\n        string password;\n        string phoneNumber;\n        string vehicle;\n        string vehicleNo;\n        string name;\n        string category;\n        uint numberOfRides; // inital value: 0\n        uint reviewScore; // initial value: 0\n        string[] reviewDescriptions; // initial value: [\"\"]\n    \n    }\n    \n    struct Rides{\n        string driver;\n    }\n  \n    RideReview public review;\n    mapping (string  => Details) public detailsMap;\n    mapping (string => Rides[]) finalBid;\n    \n    /**\n     * Reference: RideX User Contract \n     * https://github.com/priyamshah112/RideX/blob/master/Contract/User.sol\n     */\n    // Functions for the driver object\n    function get(string memory username) public view returns(string memory,string memory,string memory,string memory,string memory,string memory,string memory,uint,uint,string[] memory){\n    \n        Details memory currentUser=detailsMap[username];\n        return (\n           \n            currentUser.privateKey,\n            currentUser.phoneNumber,\n            currentUser.vehicle,\n            currentUser.vehicleNo,\n            currentUser.category,\n            currentUser.name,\n            currentUser.password,\n            currentUser.numberOfRides, // inital value: 0\n            currentUser.reviewScore, // initial value: 0\n            currentUser.reviewDescriptions // initial value: [\"\"]\n            \n        );\n    \n    }\n    function set(string memory name,string memory username,string memory phoneNumber,string memory vehicle,string memory vehicleNo,string memory category,string memory password,string memory key,uint numberOfRides,uint reviewScore) public payable{\n        string[] memory _reviewDescriptions;\n        detailsMap[username]=Details(\n            key,\n            password,\n            phoneNumber,\n            vehicle,\n            vehicleNo,\n            name,\n            category,\n            numberOfRides,\n            reviewScore,\n            _reviewDescriptions\n        );\n    }\n    \n    function setFinalBid(string memory driver,string memory rider) public{\n        finalBid[rider].push(Rides(driver));\n    }\n    function getFinalBid(string memory rider) public view returns(uint){\n        return finalBid[rider].length;\n    }\n    \n  \n  /* Functions for the review object */\n  // called by passenger (required)\n  function writeReviewScore(uint score) payable public {\n    review.reviewScore = score;\n    review.disputed = false;\n    review.reviewConfirmed = false;\n    review.discarded = false;\n  }\n  \n  function getScore() view public returns (uint){\n      return review.reviewScore;\n  }\n  \n  // called by passenger (optional)\n  function writeReviewDescription(string memory description) payable public{\n    review.reviewDescription = description;\n  }\n  \n  function getDescription() view public returns (string memory) {\n      return review.reviewDescription;\n  }\n  \n  // called by driver (optional)\n  function disputeReview() payable public{\n      review.disputed = true;\n  }\n  \n  // called by other users (optional)\n  function discardReview() payable public{\n      review.discarded = true;\n  }\n  \n  // called by other users (either driver or passenger)\n  function confirmedReview() payable public {\n    if (review.disputed == true) {\n      // discard review or not \n      if (review.discarded == true) {\n        uint emptyReviewScore;\n        string memory emptyReviewDescription;\n        review.reviewScore = emptyReviewScore;\n        review.reviewDescription = emptyReviewDescription;\n      }\n    }\n    else {\n      review.discarded = false;\n    }\n    review.reviewConfirmed = true;\n  }\n  \n  function updateReview(string memory username) payable public{\n    Details storage driver = detailsMap[username];\n    \n    require(review.reviewConfirmed == true);\n    if (review.discarded == false) {\n        uint currNumberOfRides = driver.numberOfRides + 1;\n        // rating given by customer is from 0-5, we multiply it by 20 so that the score is from 0-100\n        uint updatedReviewScore = ((currNumberOfRides-1)*driver.reviewScore+20*review.reviewScore)/currNumberOfRides;\n        \n        detailsMap[username].numberOfRides = currNumberOfRides;\n        detailsMap[username].reviewScore = updatedReviewScore;\n        detailsMap[username].reviewDescriptions.push(review.reviewDescription);\n    }\n  }\n  \n  /** Funtions that display overall review score,\n   *  all review descriptions,\n   *  and total number of rides of a driver\n   */\n  function showReviewScore(string memory username) view public returns (uint) {\n    Details storage driver = detailsMap[username];\n    return driver.reviewScore;\n  }\n      \n  function showReviewDescriptions(string memory username) view public returns (string[] memory) {\n    Details storage driver = detailsMap[username];\n    return driver.reviewDescriptions;\n  }\n    \n  function getNumberOfRides(string memory username) view public returns (uint) {\n    Details storage currentUser = detailsMap[username];\n    return currentUser.numberOfRides;\n  }\n  \n  /* Helper functions */\n  // helper function for unit testing\n  function compareStrings(string memory a, string memory b) public pure returns (bool) {\n    return (keccak256(abi.encodePacked((a))) == keccak256(abi.encodePacked((b))));\n  }\n  \n  // helper function for unit testing\n  function compareListStrings(string[] memory _a, string[] memory _b) public pure returns (bool) {\n      bool same = true;\n      if (_a.length != _b.length) {\n          same = false;\n      }\n      for (uint i=0; i < _a.length; i++) {\n          if (compareStrings(_a[i], _b[i]) == false) {\n              same = false;\n          }\n      }\n      return same;\n  }\n\n  \n}\n\n\n",
  "sourcePath": "/Users/weiruchen/Desktop/classes/cs143/project/github/Blockchain-based-Ride-Sharing-System/contracts/Review.sol",
  "compiler": {
    "name": "solc",
    "version": "0.5.16+commit.9c3226ce.Emscripten.clang"
  },
  "schemaVersion": "3.3.2",
  "updatedAt": "2020-12-16T22:25:20.866Z",
  "networkType": "ethereum",
  "devdoc": {
    "details": "Implements ride share process and review system",
    "methods": {},
    "title": "Review"
  },
  "userdoc": {
    "methods": {
      "get(string)": {
        "notice": "Reference: RideX User Contract  https://github.com/priyamshah112/RideX/blob/master/Contract/User.sol"
      },
      "showReviewScore(string)": {
        "notice": "Funtions that display overall review score, all review descriptions, and total number of rides of a driver"
      }
    }
  }
}